:1000000014C02FC02DC02CC02BC02AC03EC028C099
:1000100027C026C025C024C023C022C021C020C0C4
:100020001FC01EC01DC01CC01BC011241FBECFE5B9
:10003000D1E0DEBFCDBF10E0A0E6B0E0EEEEF2E032
:1000400002C005900D92A436B107D9F720E0A4E6CE
:10005000B0E001C01D92AC36B207E1F77DD045C1DA
:10006000CFCF1F920F920FB60F9211248F939F93B1
:1000700081E090E090936900809368009F918F9158
:100080000F900FBE0F901F9018951F920F920FB6F2
:100090000F9211242F933F934F935F936F937F930E
:1000A0008F939F9380916200909163006EE170E066
:1000B0000BD1409164005091650020916600309111
:1000C00067004130510521F04430510571F01BC0EB
:1000D00040916000509161002417350719F0821794
:1000E000930789F438B321E00CC04091600050912F
:1000F00061002417350719F08217930721F438B3EC
:1001000028E0232728BB20916600309167000396E2
:100110008217930771F480916A0090916B000196A9
:1001200090936B0080936A001092670010926600B3
:1001300006C02F5F3F4F30936700209366009F916A
:100140008F917F916F915F914F913F912F910F9080
:100150000FBE0F901F90189587B38F6087BB85E007
:1001600088BB109265001092640010926900109292
:10017000680010926B0010926A0078948BB78064CC
:100180008BBF85B7816085BF85B7826085BF10BE94
:1001900013BE83B7856083BF789412BE89B782602F
:1001A00089BF26E043E050E065E070E03AE0E4E03B
:1001B000F0E0A5E0C2E0D0E080916400909165009D
:1001C00082309105A1F12CF4009769F0019701F1BB
:1001D00076C08430910509F44CC0B4F185309105A6
:1001E00009F457C06CC0A8BB809168009091690069
:1001F0008130910509F063C000916A0010916B0095
:100200000A301105CCF210926B0010926A0052C0B5
:1002100080916A0090916B00039774F210926B00CA
:1002200010926A00D0936500C0936400C5CF28BBCC
:1002300000916A0010916B0010161106DCF5109207
:100240006B0010926A0010C038BB80916A009091D8
:100250006B000A974CF010926B0010926A00F093BA
:100260006500E0936400A8CF50936500409364005C
:10027000A3CF80916A0090916B0003970CF49CCF00
:1002800010926B0010926A00709365006093640096
:1002900093CF28BB00916A0010916B0010161106D5
:1002A0004CF410926B0010926A0010926900109248
:1002B000680005C090936500809364007DCF109224
:1002C00065001092640078CF0024552704C0080E02
:1002D000591F880F991F009729F076956795B8F3F5
:0E02E0007105B9F7802D952F0895F894FFCF82
:0402EE001E000200EC
:00000001FF
