:1000000014C02FC02DC02CC02BC02AC03EC028C099
:1000100027C026C025C024C023C022C021C020C0C4
:100020001FC01EC01DC01CC01BC011241FBECFE5B9
:10003000D1E0DEBFCDBF10E0A0E6B0E0EAEEF2E036
:1000400002C005900D92A436B107D9F720E0A4E6CE
:10005000B0E001C01D92AC36B207E1F77DD043C1DC
:10006000CFCF1F920F920FB60F9211248F939F93B1
:1000700081E090E090936700809366009F918F915C
:100080000F900FBE0F901F9018951F920F920FB6F2
:100090000F9211242F933F935F936F937F938F93CE
:1000A0009F93809168009091690020916400309145
:1000B00065008130910519F0049799F01CC080917A
:1000C0006000909161002817390741F0609162004B
:1000D00070916300F7D02817390769F498B381E06D
:1000E00008C02E31310519F02C33310521F498B3B5
:1000F00088E0892788BB2091640030916500609179
:100100006000709161008091620090916300DAD08C
:1001100003968217930771F480916A0090916B00A7
:10012000019690936B0080936A0010926500109284
:10013000640006C02F5F3F4F30936500209364003A
:100140009F918F917F916F915F913F912F910F9030
:100150000FBE0F901F90189587B38F6087BB8AE002
:1001600088BB10926900109268001092670010928C
:10017000660010926B0010926A0078948BB78064CE
:100180008BBF85B7816085BF85B7826085BF10BE94
:1001900013BE83B7856083BF789412BE89B782602F
:1001A00089BF26E043E050E065E070E035E0E4E040
:1001B000F0E0A2E0B0E080916800909169008230A8
:1001C000910599F12CF4009769F00197F9F075C049
:1001D0008430910509F44BC0ACF18530910509F4E8
:1001E00056C06BC038BB809166009091670081302B
:1001F000910509F062C0C0916A00D0916B002A9706
:10020000D4F210926B0010926A0052C080916A0082
:1002100090916B0003977CF210926B0010926A0031
:10022000B0936900A0936800C6CF28BBC0916A0054
:10023000D0916B001C161D06DCF510926B0010921D
:100240006A0010C038BB80916A0090916B000A97D9
:100250004CF010926B0010926A00F0936900E093EA
:100260006800A9CF5093690040936800A4CF8091A3
:100270006A0090916B0003970CF49DCF10926B0075
:1002800010926A00709369006093680094CF28BB55
:10029000C0916A00D0916B001C161D064CF41092A0
:1002A0006B0010926A00109267001092660005C001
:1002B00090936900809368007ECF1092690010923D
:1002C000680079CF0024552704C0080E591F880FF5
:1002D000991F009729F076956795B8F37105B9F7DE
:0A02E000802D952F0895F894FFCFAC
:0402EA001E000200F0
:00000001FF
